{
  "address": "0x7903F67E58B35E611FB3503F1246912D01CB4E32",
  "abi": [
    {
      "constant": false,
      "inputs": [],
      "name": "Burn",
      "outputs": [],
      "payable": true,
      "stateMutability": "payable",
      "type": "function"
    },
    {
      "constant": true,
      "inputs": [],
      "name": "totalBurned",
      "outputs": [
        {
          "name": "",
          "type": "uint256"
        }
      ],
      "payable": false,
      "stateMutability": "view",
      "type": "function"
    },
    {
      "constant": false,
      "inputs": [],
      "name": "Purge",
      "outputs": [],
      "payable": false,
      "stateMutability": "nonpayable",
      "type": "function"
    }
  ],
  "transactionHash": "0x5e655c3756e793715f6ea94d41f5de3d8f15d911c41a54d957ff1d3bd5431c77",
  "args": [],
  "solcInputHash": "c480b0c346c59747089aa4cff7f21e13",
  "bytecode": "0x6060604052341561000f57600080fd5b61014d8061001e6000396000f3006060604052600436106100565763ffffffff7c0100000000000000000000000000000000000000000000000000000000600035041663396ed0ab811461005b578063d89135cd14610065578063f24e4a151461008a575b600080fd5b61006361009d565b005b341561007057600080fd5b6100786100a7565b60405190815260200160405180910390f35b341561009557600080fd5b6100636100ad565b6000805434019055565b60005481565b3373ffffffffffffffffffffffffffffffffffffffff166108fc6127103073ffffffffffffffffffffffffffffffffffffffff16318115156100eb57fe5b049081150290604051600060405180830381858888f19350505050151561011157600080fd5b6130ff6000526002601e3031f0505600a165627a7a72305820769b4786053f0882bf92349021de416d6859fc378a7eeffaf5212b9a63a60f6a0029",
  "devdoc": {
    "methods": {}
  },
  "userdoc": {
    "methods": {}
  }
}