{
  "address": "0x7Dd3E993eb44160651f46951E7779572Ab39Aef9",
  "abi": [
    {
      "inputs": [
        {
          "internalType": "address payable",
          "name": "_burnerAddress",
          "type": "address"
        },
        {
          "internalType": "uint256",
          "name": "_claimPrice",
          "type": "uint256"
        }
      ],
      "stateMutability": "nonpayable",
      "type": "constructor"
    },
    {
      "anonymous": false,
      "inputs": [
        {
          "indexed": true,
          "internalType": "address",
          "name": "owner",
          "type": "address"
        },
        {
          "indexed": true,
          "internalType": "address",
          "name": "approved",
          "type": "address"
        },
        {
          "indexed": true,
          "internalType": "uint256",
          "name": "tokenId",
          "type": "uint256"
        }
      ],
      "name": "Approval",
      "type": "event"
    },
    {
      "anonymous": false,
      "inputs": [
        {
          "indexed": true,
          "internalType": "address",
          "name": "owner",
          "type": "address"
        },
        {
          "indexed": true,
          "internalType": "address",
          "name": "operator",
          "type": "address"
        },
        {
          "indexed": false,
          "internalType": "bool",
          "name": "approved",
          "type": "bool"
        }
      ],
      "name": "ApprovalForAll",
      "type": "event"
    },
    {
      "anonymous": false,
      "inputs": [
        {
          "indexed": true,
          "internalType": "address",
          "name": "previousOwner",
          "type": "address"
        },
        {
          "indexed": true,
          "internalType": "address",
          "name": "newOwner",
          "type": "address"
        }
      ],
      "name": "OwnershipTransferred",
      "type": "event"
    },
    {
      "anonymous": false,
      "inputs": [
        {
          "indexed": true,
          "internalType": "address",
          "name": "from",
          "type": "address"
        },
        {
          "indexed": true,
          "internalType": "address",
          "name": "to",
          "type": "address"
        },
        {
          "indexed": true,
          "internalType": "uint256",
          "name": "tokenId",
          "type": "uint256"
        }
      ],
      "name": "Transfer",
      "type": "event"
    },
    {
      "inputs": [
        {
          "internalType": "address",
          "name": "to",
          "type": "address"
        },
        {
          "internalType": "uint256",
          "name": "tokenId",
          "type": "uint256"
        }
      ],
      "name": "approve",
      "outputs": [],
      "stateMutability": "nonpayable",
      "type": "function"
    },
    {
      "inputs": [
        {
          "internalType": "address",
          "name": "owner",
          "type": "address"
        }
      ],
      "name": "balanceOf",
      "outputs": [
        {
          "internalType": "uint256",
          "name": "",
          "type": "uint256"
        }
      ],
      "stateMutability": "view",
      "type": "function"
    },
    {
      "inputs": [],
      "name": "burnerAddress",
      "outputs": [
        {
          "internalType": "address payable",
          "name": "",
          "type": "address"
        }
      ],
      "stateMutability": "view",
      "type": "function"
    },
    {
      "inputs": [
        {
          "internalType": "uint256",
          "name": "tokenId",
          "type": "uint256"
        }
      ],
      "name": "claim",
      "outputs": [],
      "stateMutability": "payable",
      "type": "function"
    },
    {
      "inputs": [],
      "name": "claimPrice",
      "outputs": [
        {
          "internalType": "uint256",
          "name": "",
          "type": "uint256"
        }
      ],
      "stateMutability": "view",
      "type": "function"
    },
    {
      "inputs": [
        {
          "internalType": "uint256",
          "name": "tokenId",
          "type": "uint256"
        }
      ],
      "name": "getApproved",
      "outputs": [
        {
          "internalType": "address",
          "name": "",
          "type": "address"
        }
      ],
      "stateMutability": "view",
      "type": "function"
    },
    {
      "inputs": [
        {
          "internalType": "uint256",
          "name": "tokenId",
          "type": "uint256"
        }
      ],
      "name": "getEight",
      "outputs": [
        {
          "internalType": "uint256",
          "name": "",
          "type": "uint256"
        }
      ],
      "stateMutability": "view",
      "type": "function"
    },
    {
      "inputs": [
        {
          "internalType": "uint256",
          "name": "tokenId",
          "type": "uint256"
        }
      ],
      "name": "getFifth",
      "outputs": [
        {
          "internalType": "uint256",
          "name": "",
          "type": "uint256"
        }
      ],
      "stateMutability": "view",
      "type": "function"
    },
    {
      "inputs": [
        {
          "internalType": "uint256",
          "name": "tokenId",
          "type": "uint256"
        }
      ],
      "name": "getFirst",
      "outputs": [
        {
          "internalType": "uint256",
          "name": "",
          "type": "uint256"
        }
      ],
      "stateMutability": "view",
      "type": "function"
    },
    {
      "inputs": [
        {
          "internalType": "uint256",
          "name": "tokenId",
          "type": "uint256"
        }
      ],
      "name": "getFourth",
      "outputs": [
        {
          "internalType": "uint256",
          "name": "",
          "type": "uint256"
        }
      ],
      "stateMutability": "view",
      "type": "function"
    },
    {
      "inputs": [
        {
          "internalType": "uint256",
          "name": "tokenId",
          "type": "uint256"
        }
      ],
      "name": "getSecond",
      "outputs": [
        {
          "internalType": "uint256",
          "name": "",
          "type": "uint256"
        }
      ],
      "stateMutability": "view",
      "type": "function"
    },
    {
      "inputs": [
        {
          "internalType": "uint256",
          "name": "tokenId",
          "type": "uint256"
        }
      ],
      "name": "getSeventh",
      "outputs": [
        {
          "internalType": "uint256",
          "name": "",
          "type": "uint256"
        }
      ],
      "stateMutability": "view",
      "type": "function"
    },
    {
      "inputs": [
        {
          "internalType": "uint256",
          "name": "tokenId",
          "type": "uint256"
        }
      ],
      "name": "getSixth",
      "outputs": [
        {
          "internalType": "uint256",
          "name": "",
          "type": "uint256"
        }
      ],
      "stateMutability": "view",
      "type": "function"
    },
    {
      "inputs": [
        {
          "internalType": "uint256",
          "name": "tokenId",
          "type": "uint256"
        }
      ],
      "name": "getThird",
      "outputs": [
        {
          "internalType": "uint256",
          "name": "",
          "type": "uint256"
        }
      ],
      "stateMutability": "view",
      "type": "function"
    },
    {
      "inputs": [
        {
          "internalType": "address",
          "name": "owner",
          "type": "address"
        },
        {
          "internalType": "address",
          "name": "operator",
          "type": "address"
        }
      ],
      "name": "isApprovedForAll",
      "outputs": [
        {
          "internalType": "bool",
          "name": "",
          "type": "bool"
        }
      ],
      "stateMutability": "view",
      "type": "function"
    },
    {
      "inputs": [],
      "name": "name",
      "outputs": [
        {
          "internalType": "string",
          "name": "",
          "type": "string"
        }
      ],
      "stateMutability": "view",
      "type": "function"
    },
    {
      "inputs": [],
      "name": "owner",
      "outputs": [
        {
          "internalType": "address",
          "name": "",
          "type": "address"
        }
      ],
      "stateMutability": "view",
      "type": "function"
    },
    {
      "inputs": [
        {
          "internalType": "uint256",
          "name": "tokenId",
          "type": "uint256"
        }
      ],
      "name": "ownerOf",
      "outputs": [
        {
          "internalType": "address",
          "name": "",
          "type": "address"
        }
      ],
      "stateMutability": "view",
      "type": "function"
    },
    {
      "inputs": [],
      "name": "renounceOwnership",
      "outputs": [],
      "stateMutability": "nonpayable",
      "type": "function"
    },
    {
      "inputs": [
        {
          "internalType": "address",
          "name": "from",
          "type": "address"
        },
        {
          "internalType": "address",
          "name": "to",
          "type": "address"
        },
        {
          "internalType": "uint256",
          "name": "tokenId",
          "type": "uint256"
        }
      ],
      "name": "safeTransferFrom",
      "outputs": [],
      "stateMutability": "nonpayable",
      "type": "function"
    },
    {
      "inputs": [
        {
          "internalType": "address",
          "name": "from",
          "type": "address"
        },
        {
          "internalType": "address",
          "name": "to",
          "type": "address"
        },
        {
          "internalType": "uint256",
          "name": "tokenId",
          "type": "uint256"
        },
        {
          "internalType": "bytes",
          "name": "_data",
          "type": "bytes"
        }
      ],
      "name": "safeTransferFrom",
      "outputs": [],
      "stateMutability": "nonpayable",
      "type": "function"
    },
    {
      "inputs": [
        {
          "internalType": "address",
          "name": "operator",
          "type": "address"
        },
        {
          "internalType": "bool",
          "name": "approved",
          "type": "bool"
        }
      ],
      "name": "setApprovalForAll",
      "outputs": [],
      "stateMutability": "nonpayable",
      "type": "function"
    },
    {
      "inputs": [
        {
          "internalType": "address payable",
          "name": "_burnerAddress",
          "type": "address"
        }
      ],
      "name": "setBurnerAddress",
      "outputs": [],
      "stateMutability": "nonpayable",
      "type": "function"
    },
    {
      "inputs": [
        {
          "internalType": "uint256",
          "name": "_claimPrice",
          "type": "uint256"
        }
      ],
      "name": "setClaimPrice",
      "outputs": [],
      "stateMutability": "nonpayable",
      "type": "function"
    },
    {
      "inputs": [
        {
          "internalType": "bytes4",
          "name": "interfaceId",
          "type": "bytes4"
        }
      ],
      "name": "supportsInterface",
      "outputs": [
        {
          "internalType": "bool",
          "name": "",
          "type": "bool"
        }
      ],
      "stateMutability": "view",
      "type": "function"
    },
    {
      "inputs": [],
      "name": "symbol",
      "outputs": [
        {
          "internalType": "string",
          "name": "",
          "type": "string"
        }
      ],
      "stateMutability": "view",
      "type": "function"
    },
    {
      "inputs": [
        {
          "internalType": "uint256",
          "name": "index",
          "type": "uint256"
        }
      ],
      "name": "tokenByIndex",
      "outputs": [
        {
          "internalType": "uint256",
          "name": "",
          "type": "uint256"
        }
      ],
      "stateMutability": "view",
      "type": "function"
    },
    {
      "inputs": [
        {
          "internalType": "address",
          "name": "owner",
          "type": "address"
        },
        {
          "internalType": "uint256",
          "name": "index",
          "type": "uint256"
        }
      ],
      "name": "tokenOfOwnerByIndex",
      "outputs": [
        {
          "internalType": "uint256",
          "name": "",
          "type": "uint256"
        }
      ],
      "stateMutability": "view",
      "type": "function"
    },
    {
      "inputs": [
        {
          "internalType": "uint256",
          "name": "tokenId",
          "type": "uint256"
        }
      ],
      "name": "tokenURI",
      "outputs": [
        {
          "internalType": "string",
          "name": "",
          "type": "string"
        }
      ],
      "stateMutability": "view",
      "type": "function"
    },
    {
      "inputs": [],
      "name": "totalSupply",
      "outputs": [
        {
          "internalType": "uint256",
          "name": "",
          "type": "uint256"
        }
      ],
      "stateMutability": "view",
      "type": "function"
    },
    {
      "inputs": [
        {
          "internalType": "address",
          "name": "from",
          "type": "address"
        },
        {
          "internalType": "address",
          "name": "to",
          "type": "address"
        },
        {
          "internalType": "uint256",
          "name": "tokenId",
          "type": "uint256"
        }
      ],
      "name": "transferFrom",
      "outputs": [],
      "stateMutability": "nonpayable",
      "type": "function"
    },
    {
      "inputs": [
        {
          "internalType": "address",
          "name": "newOwner",
          "type": "address"
        }
      ],
      "name": "transferOwnership",
      "outputs": [],
      "stateMutability": "nonpayable",
      "type": "function"
    }
  ],
  "transactionHash": "0xd6d9a6a52b007e9b401769dc388ed69e648899ff776f3da2b29dcdacb471b40b",
  "args": [
    "0x7903F67E58B35E611FB3503F1246912D01CB4E32",
    "88000000000000000"
  ],
  "solcInputHash": "fbb20d6a4f2141669bf6eadbae34a784",
  "bytecode": "0x61052060405260016080818152600260a0819052600360c0819052600460e0819052600561010081905260066101208190526007610140819052600861016081905260096101808190526101a08a90526101c08890526101e08790526102008690526102208590526102408490526102608390526102808290526102a08190526102c08a90526102e08890526103008790526103208690526103408590526103608490526103808390526103a08290526103c08190526103e09990995261040096909652610420949094526104409290925261046052610480526104a0526104c0526104e091909152600a61050052620000fe90600e906025620005db565b5060408051610b0081018252600180825260208201819052918101829052606081018290526080810182905260a0810182905260c0810182905260e08101829052610100810182905261012081018290526101408101829052610160810182905261018081018290526101a081018290526101c081018290526101e08101829052610200810182905261022081018290526102408101829052610260810182905261028081018290526102a081018290526102c081018290526102e08101829052610300810182905261032081018290526103408101829052610360810182905261038081018290526103a081018290526103c081018290526103e08101829052610400810182905261042081018290526104408101829052610460810182905261048081018290526104a081018290526104c081018290526104e08101829052610500810182905261052081018290526105408101829052610560810182905261058081018290526105a081018290526105c081018290526105e08101829052610600810182905261062081018290526106408101829052610660810182905261068081018290526106a081018290526106c081018290526106e08101829052610700810182905261072081018290526107408101829052610760810182905261078081018290526107a081018290526107c081018290526107e08101829052610800810182905261082081018290526108408101829052610860810182905261088081018290526108a081018290526108c081018290526108e08101829052610900810182905261092081018290526109408101829052610960810182905261098081018290526109a081018290526109c081018290526109e08101829052610a008101829052610a208101829052610a408101829052610a608101829052610a808101829052610aa08101829052610ac08101919091526000610ae0820152620003d090600f906058620005db565b506040805180820190915260018152600260208201819052620003f691601091620005db565b503480156200040457600080fd5b50604051620038853803806200388583398101604081905262000427916200071c565b604051806040016040528060018152602001603760f91b815250604051806040016040528060018152602001602760f91b81525081600090805190602001906200047392919062000688565b5080516200048990600190602084019062000688565b50506001600a55506200049c3362000589565b6001600160a01b0382166200050d5760405162461bcd60e51b815260206004820152602c60248201527f6e43657074696f6e3a206275726e65722061646472657373206973207468652060448201526b7a65726f206164647265737360a01b60648201526084015b60405180910390fd5b600081116200055f5760405162461bcd60e51b815260206004820152601a60248201527f6e43657074696f6e3a20436c61696d2070726963652069732030000000000000604482015260640162000504565b600c80546001600160a01b0319166001600160a01b039390931692909217909155600d5562000795565b600b80546001600160a01b038381166001600160a01b0319831681179093556040519116919082907f8be0079c531659141344cd1fd0a4f28419497f9722a3daafe3b4186f6b6457e090600090a35050565b82805482825590600052602060002090601f01602090048101928215620006765791602002820160005b838211156200064557835183826101000a81548160ff021916908360ff160217905550926020019260010160208160000104928301926001030262000605565b8015620006745782816101000a81549060ff021916905560010160208160000104928301926001030262000645565b505b506200068492915062000705565b5090565b828054620006969062000758565b90600052602060002090601f016020900481019282620006ba576000855562000676565b82601f10620006d557805160ff191683800117855562000676565b8280016001018555821562000676579182015b8281111562000676578251825591602001919060010190620006e8565b5b8082111562000684576000815560010162000706565b600080604083850312156200073057600080fd5b82516001600160a01b03811681146200074857600080fd5b6020939093015192949293505050565b600181811c908216806200076d57607f821691505b602082108114156200078f57634e487b7160e01b600052602260045260246000fd5b50919050565b6130e080620007a56000396000f3fe6080604052600436106101e35760003560e01c806370a08231116101025780639ec29b8211610095578063e6293e2311610064578063e6293e231461056d578063e985e9c51461058d578063f2fde38b146105d6578063fa7f71b1146105f657600080fd5b80639ec29b82146104ed578063a22cb4651461050d578063b88d4fde1461052d578063c87b56dd1461054d57600080fd5b80638da5cb5b116100d15780638da5cb5b1461047a5780639347e43f1461049857806395d89b41146104b85780639df806d6146104cd57600080fd5b806370a0823114610405578063715018a6146104255780638aa001fc1461043a5780638c921d061461045a57600080fd5b80632f745c591161017a5780634f6ccce7116101495780634f6ccce71461038557806351f468c0146103a55780636352211e146103c5578063667386f7146103e557600080fd5b80632f745c5914610312578063379607f51461033257806342842e0e1461034557806342d9d8761461036557600080fd5b80630b2503a6116101b65780630b2503a61461029957806315d655c9146102c757806318160ddd146102dd57806323b872dd146102f257600080fd5b806301ffc9a7146101e857806306fdde031461021d578063081812fc1461023f578063095ea7b314610277575b600080fd5b3480156101f457600080fd5b506102086102033660046129c6565b610616565b60405190151581526020015b60405180910390f35b34801561022957600080fd5b50610232610641565b6040516102149190612cad565b34801561024b57600080fd5b5061025f61025a366004612a00565b6106d3565b6040516001600160a01b039091168152602001610214565b34801561028357600080fd5b5061029761029236600461299a565b61076d565b005b3480156102a557600080fd5b506102b96102b4366004612a00565b610883565b604051908152602001610214565b3480156102d357600080fd5b506102b9600d5481565b3480156102e957600080fd5b506008546102b9565b3480156102fe57600080fd5b5061029761030d366004612846565b610933565b34801561031e57600080fd5b506102b961032d36600461299a565b6109ba565b610297610340366004612a00565b610a62565b34801561035157600080fd5b50610297610360366004612846565b610c69565b34801561037157600080fd5b506102b9610380366004612a00565b610c84565b34801561039157600080fd5b506102b96103a0366004612a00565b610d18565b3480156103b157600080fd5b506102976103c0366004612a00565b610dbc565b3480156103d157600080fd5b5061025f6103e0366004612a00565b610e6b565b3480156103f157600080fd5b506102b9610400366004612a00565b610ef6565b34801561041157600080fd5b506102b96104203660046127e9565b610f8a565b34801561043157600080fd5b50610297611024565b34801561044657600080fd5b506102b9610455366004612a00565b61108a565b34801561046657600080fd5b506102b9610475366004612a00565b61111e565b34801561048657600080fd5b50600b546001600160a01b031661025f565b3480156104a457600080fd5b506102b96104b3366004612a00565b6111b2565b3480156104c457600080fd5b50610232611246565b3480156104d957600080fd5b506102976104e83660046127e9565b611255565b3480156104f957600080fd5b506102b9610508366004612a00565b61134d565b34801561051957600080fd5b50610297610528366004612967565b6113e1565b34801561053957600080fd5b50610297610548366004612887565b6114a6565b34801561055957600080fd5b50610232610568366004612a00565b611534565b34801561057957600080fd5b50600c5461025f906001600160a01b031681565b34801561059957600080fd5b506102086105a836600461280d565b6001600160a01b03918216600090815260056020908152604080832093909416825291909152205460ff1690565b3480156105e257600080fd5b506102976105f13660046127e9565b611809565b34801561060257600080fd5b506102b9610611366004612a00565b6118eb565b60006001600160e01b0319821663780e9d6360e01b148061063b575061063b8261197f565b92915050565b60606000805461065090612d4e565b80601f016020809104026020016040519081016040528092919081815260200182805461067c90612d4e565b80156106c95780601f1061069e576101008083540402835291602001916106c9565b820191906000526020600020905b8154815290600101906020018083116106ac57829003601f168201915b5050505050905090565b6000818152600260205260408120546001600160a01b03166107515760405162461bcd60e51b815260206004820152602c60248201527f4552433732313a20617070726f76656420717565727920666f72206e6f6e657860448201526b34b9ba32b73a103a37b5b2b760a11b60648201526084015b60405180910390fd5b506000908152600460205260409020546001600160a01b031690565b600061077882610e6b565b9050806001600160a01b0316836001600160a01b031614156107e65760405162461bcd60e51b815260206004820152602160248201527f4552433732313a20617070726f76616c20746f2063757272656e74206f776e656044820152603960f91b6064820152608401610748565b336001600160a01b0382161480610802575061080281336105a8565b6108745760405162461bcd60e51b815260206004820152603860248201527f4552433732313a20617070726f76652063616c6c6572206973206e6f74206f7760448201527f6e6572206e6f7220617070726f76656420666f7220616c6c00000000000000006064820152608401610748565b61087e83836119cf565b505050565b600061063b826040518060400160405280600581526020017f4649465448000000000000000000000000000000000000000000000000000000815250600e80548060200260200160405190810160405280929190818152602001828054801561092957602002820191906000526020600020906000905b825461010083900a900460ff168152602060019283018181049485019490930390920291018084116108fa5790505b5050505050611a3d565b61093d3382611c04565b6109af5760405162461bcd60e51b815260206004820152603160248201527f4552433732313a207472616e736665722063616c6c6572206973206e6f74206f60448201527f776e6572206e6f7220617070726f7665640000000000000000000000000000006064820152608401610748565b61087e838383611cfb565b60006109c583610f8a565b8210610a395760405162461bcd60e51b815260206004820152602b60248201527f455243373231456e756d657261626c653a206f776e657220696e646578206f7560448201527f74206f6620626f756e64730000000000000000000000000000000000000000006064820152608401610748565b506001600160a01b03919091166000908152600660209081526040808320938352929052205490565b6002600a541415610ab55760405162461bcd60e51b815260206004820152601f60248201527f5265656e7472616e637947756172643a207265656e7472616e742063616c6c006044820152606401610748565b6002600a55600d543414610b0b5760405162461bcd60e51b815260206004820152601d60248201527f5542512076616c75652073656e74206973206e6f7420636f72726563740000006044820152606401610748565b600081118015610b1c57506122b981105b610b685760405162461bcd60e51b815260206004820152601060248201527f546f6b656e20494420696e76616c6964000000000000000000000000000000006044820152606401610748565b610b723382611eba565b600c5460408051600481526024810182526020810180517bffffffffffffffffffffffffffffffffffffffffffffffffffffffff1663396ed0ab60e01b17905290516000926001600160a01b0316913491610bcd9190612a45565b60006040518083038185875af1925050503d8060008114610c0a576040519150601f19603f3d011682016040523d82523d6000602084013e610c0f565b606091505b5050905080610c605760405162461bcd60e51b815260206004820152600f60248201527f5472616e73666572206661696c656400000000000000000000000000000000006044820152606401610748565b50506001600a55565b61087e838383604051806020016040528060008152506114a6565b600061063b826040518060400160405280600581526020017f5349585448000000000000000000000000000000000000000000000000000000815250600e805480602002602001604051908101604052809291908181526020018280548015610929576000918252602091829020805460ff1684529082028301929091600191018084116108fa5790505050505050611a3d565b6000610d2360085490565b8210610d975760405162461bcd60e51b815260206004820152602c60248201527f455243373231456e756d657261626c653a20676c6f62616c20696e646578206f60448201527f7574206f6620626f756e647300000000000000000000000000000000000000006064820152608401610748565b60088281548110610daa57610daa612dfa565b90600052602060002001549050919050565b600b546001600160a01b03163314610e165760405162461bcd60e51b815260206004820181905260248201527f4f776e61626c653a2063616c6c6572206973206e6f7420746865206f776e65726044820152606401610748565b60008111610e665760405162461bcd60e51b815260206004820152601a60248201527f6e43657074696f6e3a20436c61696d20707269636520697320300000000000006044820152606401610748565b600d55565b6000818152600260205260408120546001600160a01b03168061063b5760405162461bcd60e51b815260206004820152602960248201527f4552433732313a206f776e657220717565727920666f72206e6f6e657869737460448201527f656e7420746f6b656e00000000000000000000000000000000000000000000006064820152608401610748565b600061063b826040518060400160405280600581526020017f4649525354000000000000000000000000000000000000000000000000000000815250600e805480602002602001604051908101604052809291908181526020018280548015610929576000918252602091829020805460ff1684529082028301929091600191018084116108fa5790505050505050611a3d565b60006001600160a01b0382166110085760405162461bcd60e51b815260206004820152602a60248201527f4552433732313a2062616c616e636520717565727920666f7220746865207a6560448201527f726f2061646472657373000000000000000000000000000000000000000000006064820152608401610748565b506001600160a01b031660009081526003602052604090205490565b600b546001600160a01b0316331461107e5760405162461bcd60e51b815260206004820181905260248201527f4f776e61626c653a2063616c6c6572206973206e6f7420746865206f776e65726044820152606401610748565b6110886000611ed8565b565b600061063b826040518060400160405280600681526020017f5345434f4e440000000000000000000000000000000000000000000000000000815250600e805480602002602001604051908101604052809291908181526020018280548015610929576000918252602091829020805460ff1684529082028301929091600191018084116108fa5790505050505050611a3d565b600061063b826040518060400160405280600781526020017f534556454e544800000000000000000000000000000000000000000000000000815250600e805480602002602001604051908101604052809291908181526020018280548015610929576000918252602091829020805460ff1684529082028301929091600191018084116108fa5790505050505050611a3d565b600061063b826040518060400160405280600581526020017f4549474854000000000000000000000000000000000000000000000000000000815250600e805480602002602001604051908101604052809291908181526020018280548015610929576000918252602091829020805460ff1684529082028301929091600191018084116108fa5790505050505050611a3d565b60606001805461065090612d4e565b600b546001600160a01b031633146112af5760405162461bcd60e51b815260206004820181905260248201527f4f776e61626c653a2063616c6c6572206973206e6f7420746865206f776e65726044820152606401610748565b6001600160a01b03811661132b5760405162461bcd60e51b815260206004820152602c60248201527f6e43657074696f6e3a204275726e65722061646472657373206973207468652060448201527f7a65726f206164647265737300000000000000000000000000000000000000006064820152608401610748565b600c80546001600160a01b0319166001600160a01b0392909216919091179055565b600061063b826040518060400160405280600681526020017f464f555254480000000000000000000000000000000000000000000000000000815250600e805480602002602001604051908101604052809291908181526020018280548015610929576000918252602091829020805460ff1684529082028301929091600191018084116108fa5790505050505050611a3d565b6001600160a01b03821633141561143a5760405162461bcd60e51b815260206004820152601960248201527f4552433732313a20617070726f766520746f2063616c6c6572000000000000006044820152606401610748565b3360008181526005602090815260408083206001600160a01b03871680855290835292819020805460ff191686151590811790915590519081529192917f17307eab39ab6107e8899845ad3d59bd9653f200f220920489ca2b5937696c31910160405180910390a35050565b6114b03383611c04565b6115225760405162461bcd60e51b815260206004820152603160248201527f4552433732313a207472616e736665722063616c6c6572206973206e6f74206f60448201527f776e6572206e6f7220617070726f7665640000000000000000000000000000006064820152608401610748565b61152e84848484611f2a565b50505050565b606061153e6127c1565b60405180610120016040528060fd8152602001612f1d60fd9139815261156b61156684610ef6565b611fa8565b81600160200201819052506040518060600160405280602881526020016130836028913960408201526115a06115668461108a565b6060808301919091526040805191820190526028808252612e52602083013960808201526115d0611566846118eb565b60a082015260408051606081019091526028808252612ecc602083013960c08201526115fe6115668461134d565b60e082015260408051606081019091526029808252612ef4602083013961010082015261162d61156684610883565b61012082015260408051606081019091526029808252612ea3602083013961014082015261165d61156684610c84565b6101608201526040805160608101909152602980825261301a602083013961018082015261168d6115668461111e565b6101a082015260408051606081019091526029808252612e7a60208301396101c08201526116bd611566846111b2565b6101e0820152604080518082018252600d81527f3c2f746578743e3c2f7376673e00000000000000000000000000000000000000602080830191909152610200840191909152825181840151838501516060860151608087015160a088015160c089015160e08a01516101008b0151995160009a61173d9a909101612a90565b60408051808303601f19018152908290526101208401516101408501516101608601516101808701516101a08801516101c08901516101e08a01516102008b0151979950611790988a9890602001612a90565b604051602081830303815290604052905060006117dd6117af86611fa8565b6117b8846120be565b6040516020016117c9929190612b50565b6040516020818303038152906040526120be565b9050806040516020016117f09190612c2c565b60408051601f1981840301815291905295945050505050565b600b546001600160a01b031633146118635760405162461bcd60e51b815260206004820181905260248201527f4f776e61626c653a2063616c6c6572206973206e6f7420746865206f776e65726044820152606401610748565b6001600160a01b0381166118df5760405162461bcd60e51b815260206004820152602660248201527f4f776e61626c653a206e6577206f776e657220697320746865207a65726f206160448201527f64647265737300000000000000000000000000000000000000000000000000006064820152608401610748565b6118e881611ed8565b50565b600061063b826040518060400160405280600581526020017f5448495244000000000000000000000000000000000000000000000000000000815250600e805480602002602001604051908101604052809291908181526020018280548015610929576000918252602091829020805460ff1684529082028301929091600191018084116108fa5790505050505050611a3d565b60006001600160e01b031982166380ac58cd60e01b14806119b057506001600160e01b03198216635b5e139f60e01b145b8061063b57506301ffc9a760e01b6001600160e01b031983161461063b565b600081815260046020526040902080546001600160a01b0319166001600160a01b0384169081179091558190611a0482610e6b565b6001600160a01b03167f8c5be1e5ebec7d5bd14f71427d1e84f3dd0314c0f7b2291e5b200ac8c7c3b92560405160405180910390a45050565b600080611a7284611a4d87611fa8565b604051602001611a5e929190612a61565b604051602081830303815290604052612224565b9050600083845183611a849190612da4565b81518110611a9457611a94612dfa565b602002602001015160ff1690506000601583611ab09190612da4565b9050600e811115611b045760108054611ac99085612da4565b81548110611ad957611ad9612dfa565b600091825260209182902091810490910154611b0191601f166101000a900460ff1683612cc0565b91505b60138110611bfa578060131415611bb15760108054611b239085612da4565b81548110611b3357611b33612dfa565b90600052602060002090602091828204019190069054906101000a900460ff1660ff16600f808054905085611b689190612da4565b81548110611b7857611b78612dfa565b600091825260209182902091810490910154611ba091601f166101000a900460ff1684612cec565b611baa9190612cc0565b9150611bfa565b600f8054611bbf9085612da4565b81548110611bcf57611bcf612dfa565b600091825260209182902091810490910154611bf791601f166101000a900460ff1683612cec565b91505b5095945050505050565b6000818152600260205260408120546001600160a01b0316611c7d5760405162461bcd60e51b815260206004820152602c60248201527f4552433732313a206f70657261746f7220717565727920666f72206e6f6e657860448201526b34b9ba32b73a103a37b5b2b760a11b6064820152608401610748565b6000611c8883610e6b565b9050806001600160a01b0316846001600160a01b03161480611cc35750836001600160a01b0316611cb8846106d3565b6001600160a01b0316145b80611cf357506001600160a01b0380821660009081526005602090815260408083209388168352929052205460ff165b949350505050565b826001600160a01b0316611d0e82610e6b565b6001600160a01b031614611d8a5760405162461bcd60e51b815260206004820152602960248201527f4552433732313a207472616e73666572206f6620746f6b656e2074686174206960448201527f73206e6f74206f776e00000000000000000000000000000000000000000000006064820152608401610748565b6001600160a01b038216611dec5760405162461bcd60e51b8152602060048201526024808201527f4552433732313a207472616e7366657220746f20746865207a65726f206164646044820152637265737360e01b6064820152608401610748565b611df7838383612255565b611e026000826119cf565b6001600160a01b0383166000908152600360205260408120805460019290611e2b908490612d0b565b90915550506001600160a01b0382166000908152600360205260408120805460019290611e59908490612cc0565b909155505060008181526002602052604080822080546001600160a01b0319166001600160a01b0386811691821790925591518493918716917fddf252ad1be2c89b69c2b068fc378daa952ba7f163c4a11628f55a4df523b3ef91a4505050565b611ed482826040518060200160405280600081525061230d565b5050565b600b80546001600160a01b038381166001600160a01b0319831681179093556040519116919082907f8be0079c531659141344cd1fd0a4f28419497f9722a3daafe3b4186f6b6457e090600090a35050565b611f35848484611cfb565b611f418484848461238b565b61152e5760405162461bcd60e51b815260206004820152603260248201527f4552433732313a207472616e7366657220746f206e6f6e20455243373231526560448201527131b2b4bb32b91034b6b83632b6b2b73a32b960711b6064820152608401610748565b606081611fcc5750506040805180820190915260018152600360fc1b602082015290565b8160005b8115611ff65780611fe081612d89565b9150611fef9050600a83612cd8565b9150611fd0565b60008167ffffffffffffffff81111561201157612011612e10565b6040519080825280601f01601f19166020018201604052801561203b576020820181803683370190505b5090505b8415611cf357612050600183612d0b565b915061205d600a86612da4565b612068906030612cc0565b60f81b81838151811061207d5761207d612dfa565b60200101907effffffffffffffffffffffffffffffffffffffffffffffffffffffffffffff1916908160001a9053506120b7600a86612cd8565b945061203f565b8051606090806120de575050604080516020810190915260008152919050565b600060036120ed836002612cc0565b6120f79190612cd8565b612102906004612cec565b90506000612111826020612cc0565b67ffffffffffffffff81111561212957612129612e10565b6040519080825280601f01601f191660200182016040528015612153576020820181803683370190505b5090506000604051806060016040528060408152602001613043604091399050600181016020830160005b868110156121df576003818a01810151603f601282901c8116860151600c83901c8216870151600684901c831688015192909316870151600891821b60ff94851601821b92841692909201901b91160160e01b83526004909201910161217e565b5060038606600181146121f9576002811461220a57612216565b613d3d60f01b600119830152612216565b603d60f81b6000198301525b505050918152949350505050565b6000816040516020016122379190612a45565b60408051601f19818403018152919052805160209091012092915050565b6001600160a01b0383166122b0576122ab81600880546000838152600960205260408120829055600182018355919091527ff3f7a9fe364faab93b216da50a3214154f22a0a2b415b23a84c8169e8b636ee30155565b6122d3565b816001600160a01b0316836001600160a01b0316146122d3576122d383826124e3565b6001600160a01b0382166122ea5761087e81612580565b826001600160a01b0316826001600160a01b03161461087e5761087e828261262f565b6123178383612673565b612324600084848461238b565b61087e5760405162461bcd60e51b815260206004820152603260248201527f4552433732313a207472616e7366657220746f206e6f6e20455243373231526560448201527131b2b4bb32b91034b6b83632b6b2b73a32b960711b6064820152608401610748565b60006001600160a01b0384163b156124d857604051630a85bd0160e11b81526001600160a01b0385169063150b7a02906123cf903390899088908890600401612c71565b602060405180830381600087803b1580156123e957600080fd5b505af1925050508015612419575060408051601f3d908101601f19168201909252612416918101906129e3565b60015b6124be573d808015612447576040519150601f19603f3d011682016040523d82523d6000602084013e61244c565b606091505b5080516124b65760405162461bcd60e51b815260206004820152603260248201527f4552433732313a207472616e7366657220746f206e6f6e20455243373231526560448201527131b2b4bb32b91034b6b83632b6b2b73a32b960711b6064820152608401610748565b805181602001fd5b6001600160e01b031916630a85bd0160e11b149050611cf3565b506001949350505050565b600060016124f084610f8a565b6124fa9190612d0b565b60008381526007602052604090205490915080821461254d576001600160a01b03841660009081526006602090815260408083208584528252808320548484528184208190558352600790915290208190555b5060009182526007602090815260408084208490556001600160a01b039094168352600681528383209183525290812055565b60085460009061259290600190612d0b565b600083815260096020526040812054600880549394509092849081106125ba576125ba612dfa565b9060005260206000200154905080600883815481106125db576125db612dfa565b600091825260208083209091019290925582815260099091526040808220849055858252812055600880548061261357612613612de4565b6001900381819060005260206000200160009055905550505050565b600061263a83610f8a565b6001600160a01b039093166000908152600660209081526040808320868452825280832085905593825260079052919091209190915550565b6001600160a01b0382166126c95760405162461bcd60e51b815260206004820181905260248201527f4552433732313a206d696e7420746f20746865207a65726f20616464726573736044820152606401610748565b6000818152600260205260409020546001600160a01b03161561272e5760405162461bcd60e51b815260206004820152601c60248201527f4552433732313a20746f6b656e20616c7265616479206d696e746564000000006044820152606401610748565b61273a60008383612255565b6001600160a01b0382166000908152600360205260408120805460019290612763908490612cc0565b909155505060008181526002602052604080822080546001600160a01b0319166001600160a01b03861690811790915590518392907fddf252ad1be2c89b69c2b068fc378daa952ba7f163c4a11628f55a4df523b3ef908290a45050565b6040518061022001604052806011905b60608152602001906001900390816127d15790505090565b6000602082840312156127fb57600080fd5b813561280681612e26565b9392505050565b6000806040838503121561282057600080fd5b823561282b81612e26565b9150602083013561283b81612e26565b809150509250929050565b60008060006060848603121561285b57600080fd5b833561286681612e26565b9250602084013561287681612e26565b929592945050506040919091013590565b6000806000806080858703121561289d57600080fd5b84356128a881612e26565b935060208501356128b881612e26565b925060408501359150606085013567ffffffffffffffff808211156128dc57600080fd5b818701915087601f8301126128f057600080fd5b81358181111561290257612902612e10565b604051601f8201601f19908116603f0116810190838211818310171561292a5761292a612e10565b816040528281528a602084870101111561294357600080fd5b82602086016020830137600060208483010152809550505050505092959194509250565b6000806040838503121561297a57600080fd5b823561298581612e26565b91506020830135801515811461283b57600080fd5b600080604083850312156129ad57600080fd5b82356129b881612e26565b946020939093013593505050565b6000602082840312156129d857600080fd5b813561280681612e3b565b6000602082840312156129f557600080fd5b815161280681612e3b565b600060208284031215612a1257600080fd5b5035919050565b60008151808452612a31816020860160208601612d22565b601f01601f19169290920160200192915050565b60008251612a57818460208701612d22565b9190910192915050565b60008351612a73818460208801612d22565b835190830190612a87818360208801612d22565b01949350505050565b60008a51612aa2818460208f01612d22565b8a51612ab48183860160208f01612d22565b8a519184010190612ac9818360208e01612d22565b8951612adb8183850160208e01612d22565b8951929091010190612af1818360208c01612d22565b8751910190612b04818360208b01612d22565b8651612b168183850160208b01612d22565b8651929091010190612b2c818360208901612d22565b8451612b3e8183850160208901612d22565b9101019b9a5050505050505050505050565b7f7b226e616d65223a20224e202300000000000000000000000000000000000000815260008351612b8881600d850160208801612d22565b7f222c20226465736372697074696f6e223a20226e43657074696f6e202d205468600d918401918201527f6520647265616d206973207265616c222c2022696d616765223a202264617461602d8201527f3a696d6167652f7376672b786d6c3b6261736536342c00000000000000000000604d8201528351612c11816063840160208801612d22565b61227d60f01b60639290910191820152606501949350505050565b7f646174613a6170706c69636174696f6e2f6a736f6e3b6261736536342c000000815260008251612c6481601d850160208701612d22565b91909101601d0192915050565b60006001600160a01b03808716835280861660208401525083604083015260806060830152612ca36080830184612a19565b9695505050505050565b6020815260006128066020830184612a19565b60008219821115612cd357612cd3612db8565b500190565b600082612ce757612ce7612dce565b500490565b6000816000190483118215151615612d0657612d06612db8565b500290565b600082821015612d1d57612d1d612db8565b500390565b60005b83811015612d3d578181015183820152602001612d25565b8381111561152e5750506000910152565b600181811c90821680612d6257607f821691505b60208210811415612d8357634e487b7160e01b600052602260045260246000fd5b50919050565b6000600019821415612d9d57612d9d612db8565b5060010190565b600082612db357612db3612dce565b500690565b634e487b7160e01b600052601160045260246000fd5b634e487b7160e01b600052601260045260246000fd5b634e487b7160e01b600052603160045260246000fd5b634e487b7160e01b600052603260045260246000fd5b634e487b7160e01b600052604160045260246000fd5b6001600160a01b03811681146118e857600080fd5b6001600160e01b0319811681146118e857600080fdfe3c2f746578743e3c7465787420783d2231302220793d2236302220636c6173733d2262617365223e3c2f746578743e3c7465787420783d2231302220793d223136302220636c6173733d2262617365223e3c2f746578743e3c7465787420783d2231302220793d223132302220636c6173733d2262617365223e3c2f746578743e3c7465787420783d2231302220793d2238302220636c6173733d2262617365223e3c2f746578743e3c7465787420783d2231302220793d223130302220636c6173733d2262617365223e3c73766720786d6c6e733d22687474703a2f2f7777772e77332e6f72672f323030302f73766722207072657365727665417370656374526174696f3d22784d696e594d696e206d656574222076696577426f783d223020302033353020333530223e3c7374796c653e2e62617365207b2066696c6c3a2077686974653b20666f6e742d66616d696c793a2073657269663b20666f6e742d73697a653a20313470783b207d3c2f7374796c653e3c726563742077696474683d223130302522206865696768743d2231303025222066696c6c3d22626c61636b22202f3e3c7465787420783d2231302220793d2232302220636c6173733d2262617365223e3c2f746578743e3c7465787420783d2231302220793d223134302220636c6173733d2262617365223e4142434445464748494a4b4c4d4e4f505152535455565758595a6162636465666768696a6b6c6d6e6f707172737475767778797a303132333435363738392b2f3c2f746578743e3c7465787420783d2231302220793d2234302220636c6173733d2262617365223ea2646970667358221220de4392e1c8ea9a2d280ca5fec0205aed13c8fb95fd153ba670f907a0007d70f864736f6c63430008070033",
  "devdoc": {
    "kind": "dev",
    "methods": {
      "approve(address,uint256)": {
        "details": "See {IERC721-approve}."
      },
      "balanceOf(address)": {
        "details": "See {IERC721-balanceOf}."
      },
      "constructor": {
        "params": {
          "_burnerAddress": "Burner smart contract address where claimed funds will be forwarded to"
        }
      },
      "getApproved(uint256)": {
        "details": "See {IERC721-getApproved}."
      },
      "isApprovedForAll(address,address)": {
        "details": "See {IERC721-isApprovedForAll}."
      },
      "name()": {
        "details": "See {IERC721Metadata-name}."
      },
      "owner()": {
        "details": "Returns the address of the current owner."
      },
      "ownerOf(uint256)": {
        "details": "See {IERC721-ownerOf}."
      },
      "renounceOwnership()": {
        "details": "Leaves the contract without owner. It will not be possible to call `onlyOwner` functions anymore. Can only be called by the current owner. NOTE: Renouncing ownership will leave the contract without an owner, thereby removing any functionality that is only available to the owner."
      },
      "safeTransferFrom(address,address,uint256)": {
        "details": "See {IERC721-safeTransferFrom}."
      },
      "safeTransferFrom(address,address,uint256,bytes)": {
        "details": "See {IERC721-safeTransferFrom}."
      },
      "setApprovalForAll(address,bool)": {
        "details": "See {IERC721-setApprovalForAll}."
      },
      "supportsInterface(bytes4)": {
        "details": "See {IERC165-supportsInterface}."
      },
      "symbol()": {
        "details": "See {IERC721Metadata-symbol}."
      },
      "tokenByIndex(uint256)": {
        "details": "See {IERC721Enumerable-tokenByIndex}."
      },
      "tokenOfOwnerByIndex(address,uint256)": {
        "details": "See {IERC721Enumerable-tokenOfOwnerByIndex}."
      },
      "tokenURI(uint256)": {
        "details": "See {IERC721Metadata-tokenURI}."
      },
      "totalSupply()": {
        "details": "See {IERC721Enumerable-totalSupply}."
      },
      "transferFrom(address,address,uint256)": {
        "details": "See {IERC721-transferFrom}."
      },
      "transferOwnership(address)": {
        "details": "Transfers ownership of the contract to a new account (`newOwner`). Can only be called by the current owner."
      }
    },
    "version": 1
  },
  "userdoc": {
    "kind": "user",
    "methods": {},
    "version": 1
  },
  "storageLayout": {
    "storage": [
      {
        "astId": 169,
        "contract": "contracts/N.sol:N",
        "label": "_name",
        "offset": 0,
        "slot": "0",
        "type": "t_string_storage"
      },
      {
        "astId": 171,
        "contract": "contracts/N.sol:N",
        "label": "_symbol",
        "offset": 0,
        "slot": "1",
        "type": "t_string_storage"
      },
      {
        "astId": 175,
        "contract": "contracts/N.sol:N",
        "label": "_owners",
        "offset": 0,
        "slot": "2",
        "type": "t_mapping(t_uint256,t_address)"
      },
      {
        "astId": 179,
        "contract": "contracts/N.sol:N",
        "label": "_balances",
        "offset": 0,
        "slot": "3",
        "type": "t_mapping(t_address,t_uint256)"
      },
      {
        "astId": 183,
        "contract": "contracts/N.sol:N",
        "label": "_tokenApprovals",
        "offset": 0,
        "slot": "4",
        "type": "t_mapping(t_uint256,t_address)"
      },
      {
        "astId": 189,
        "contract": "contracts/N.sol:N",
        "label": "_operatorApprovals",
        "offset": 0,
        "slot": "5",
        "type": "t_mapping(t_address,t_mapping(t_address,t_bool))"
      },
      {
        "astId": 1108,
        "contract": "contracts/N.sol:N",
        "label": "_ownedTokens",
        "offset": 0,
        "slot": "6",
        "type": "t_mapping(t_address,t_mapping(t_uint256,t_uint256))"
      },
      {
        "astId": 1112,
        "contract": "contracts/N.sol:N",
        "label": "_ownedTokensIndex",
        "offset": 0,
        "slot": "7",
        "type": "t_mapping(t_uint256,t_uint256)"
      },
      {
        "astId": 1115,
        "contract": "contracts/N.sol:N",
        "label": "_allTokens",
        "offset": 0,
        "slot": "8",
        "type": "t_array(t_uint256)dyn_storage"
      },
      {
        "astId": 1119,
        "contract": "contracts/N.sol:N",
        "label": "_allTokensIndex",
        "offset": 0,
        "slot": "9",
        "type": "t_mapping(t_uint256,t_uint256)"
      },
      {
        "astId": 114,
        "contract": "contracts/N.sol:N",
        "label": "_status",
        "offset": 0,
        "slot": "10",
        "type": "t_uint256"
      },
      {
        "astId": 7,
        "contract": "contracts/N.sol:N",
        "label": "_owner",
        "offset": 0,
        "slot": "11",
        "type": "t_address"
      },
      {
        "astId": 2060,
        "contract": "contracts/N.sol:N",
        "label": "burnerAddress",
        "offset": 0,
        "slot": "12",
        "type": "t_address_payable"
      },
      {
        "astId": 2062,
        "contract": "contracts/N.sol:N",
        "label": "claimPrice",
        "offset": 0,
        "slot": "13",
        "type": "t_uint256"
      },
      {
        "astId": 2103,
        "contract": "contracts/N.sol:N",
        "label": "units",
        "offset": 0,
        "slot": "14",
        "type": "t_array(t_uint8)dyn_storage"
      },
      {
        "astId": 2195,
        "contract": "contracts/N.sol:N",
        "label": "multipliers",
        "offset": 0,
        "slot": "15",
        "type": "t_array(t_uint8)dyn_storage"
      },
      {
        "astId": 2201,
        "contract": "contracts/N.sol:N",
        "label": "suffixes",
        "offset": 0,
        "slot": "16",
        "type": "t_array(t_uint8)dyn_storage"
      }
    ],
    "types": {
      "t_address": {
        "encoding": "inplace",
        "label": "address",
        "numberOfBytes": "20"
      },
      "t_address_payable": {
        "encoding": "inplace",
        "label": "address payable",
        "numberOfBytes": "20"
      },
      "t_array(t_uint256)dyn_storage": {
        "base": "t_uint256",
        "encoding": "dynamic_array",
        "label": "uint256[]",
        "numberOfBytes": "32"
      },
      "t_array(t_uint8)dyn_storage": {
        "base": "t_uint8",
        "encoding": "dynamic_array",
        "label": "uint8[]",
        "numberOfBytes": "32"
      },
      "t_bool": {
        "encoding": "inplace",
        "label": "bool",
        "numberOfBytes": "1"
      },
      "t_mapping(t_address,t_bool)": {
        "encoding": "mapping",
        "key": "t_address",
        "label": "mapping(address => bool)",
        "numberOfBytes": "32",
        "value": "t_bool"
      },
      "t_mapping(t_address,t_mapping(t_address,t_bool))": {
        "encoding": "mapping",
        "key": "t_address",
        "label": "mapping(address => mapping(address => bool))",
        "numberOfBytes": "32",
        "value": "t_mapping(t_address,t_bool)"
      },
      "t_mapping(t_address,t_mapping(t_uint256,t_uint256))": {
        "encoding": "mapping",
        "key": "t_address",
        "label": "mapping(address => mapping(uint256 => uint256))",
        "numberOfBytes": "32",
        "value": "t_mapping(t_uint256,t_uint256)"
      },
      "t_mapping(t_address,t_uint256)": {
        "encoding": "mapping",
        "key": "t_address",
        "label": "mapping(address => uint256)",
        "numberOfBytes": "32",
        "value": "t_uint256"
      },
      "t_mapping(t_uint256,t_address)": {
        "encoding": "mapping",
        "key": "t_uint256",
        "label": "mapping(uint256 => address)",
        "numberOfBytes": "32",
        "value": "t_address"
      },
      "t_mapping(t_uint256,t_uint256)": {
        "encoding": "mapping",
        "key": "t_uint256",
        "label": "mapping(uint256 => uint256)",
        "numberOfBytes": "32",
        "value": "t_uint256"
      },
      "t_string_storage": {
        "encoding": "bytes",
        "label": "string",
        "numberOfBytes": "32"
      },
      "t_uint256": {
        "encoding": "inplace",
        "label": "uint256",
        "numberOfBytes": "32"
      },
      "t_uint8": {
        "encoding": "inplace",
        "label": "uint8",
        "numberOfBytes": "1"
      }
    }
  }
}